:020000040800F2
:1000000040050020B5010008F50C00085507000860
:10001000F10C000819070008611100080000000039
:10002000000000000000000000000000F10D0008CA
:100030001D07000800000000F90C0008D90F000897
:10004000CF010008CF010008CF010008CF01000850
:10005000CF010008CF010008CF010008CF01000840
:10006000CF010008CF010008CF010008CF01000830
:10007000CF010008CF010008CF010008CF01000820
:10008000CF010008CF010008CF010008CF01000810
:10009000CF010008CF010008CF010008CF01000800
:1000A000CF010008CF010008CF010008CF010008F0
:1000B000CF010008CF010008CF010008CF010008E0
:1000C000CF010008CF010008CF010008CF010008D0
:1000D000CF010008CF010008CF010008CF010008C0
:1000E000CF010008CF010008CF010008CF010008B0
:1000F000CF010008CF010008CF010008CF010008A0
:10010000CF010008CF010008CF010008CF0100088F
:10011000CF010008CD100008CF010008CF01000872
:10012000CF010008CF010008CF010008CF0100086F
:10013000000000000000000000000000CF010008E7
:10014000CF010008CF010008CF0100080000000027
:1001500000000000CF010008CF010008CF01000817
:10016000CF010008CF0100080000000000000000DF
:10017000CF010008CF0100080000000000000000CF
:100180000000000000000000CF010008CF010008BF
:10019000CF010008CF010008CF01000800000000D7
:1001A000DFF80CD000F018FA0048004709160008E4
:1001B000400500200648804706480047FEE7FEE766
:1001C000FEE7FEE7FEE7FEE7FEE7FEE7FEE7FEE707
:1001D000E10F0008A101000830B50B4601460020E0
:1001E0002022012409E021FA02F59D4205D303FAF9
:1001F00002F5491B04FA02F52844151EA2F101027A
:10020000F1DC30BD2DE9F05F0546002092469B46AB
:1002100088460646814640241BE02846414647461C
:10022000224600F0FAF953465A46C01A914110D3BB
:1002300011461846224600F0E1F92D1A67EB010835
:100240004F4622460120002100F0D8F917EB0009A3
:100250004E41201EA4F10104DFDC484631462A4607
:100260004346BDE8F09F2DE9FE4F804681EA03003A
:10027000C00F0C46009021F0004123F00045B8EB80
:100280000200A94105D24046214690461C460B4635
:10029000024623F00040104347D0270DC7F30A0061
:1002A000C3F30A510290401A019040286BDAC3F35D
:1002B000130040F4801B0098924620B10023D2EB3B
:1002C000030A63EB0B0B01985946C0F140025046FC
:1002D00000F094F906460D4650465946019A00F042
:1002E000ACF910EB08006141002487EA115284EA5E
:1002F000E7731A4340D0009A62B3019A012A4FEA89
:10030000075215DC001B61EB02014FF0004202EACC
:100310000752CDE90042001C41F5801132462B46C0
:1003200000F0ACF903B0BDE8F08F40462146F9E794
:10033000001B61EB0201001C41F5801300185B41BA
:100340002018A2F5001747EB030140EAD570B61953
:100350006D4111E06D084FEA360645EAC0754FEA77
:100360000752001B61EB0201001C41F58011490896
:100370004FEA30000019514132462B4603B0BDE828
:10038000F04F00F06CB90098012240000023D0EB40
:10039000020263EBE073009821464FEAE074B8EB89
:1003A000000061EB0401E9E783F000435BE781F0C3
:1003B000004158E72DE9FE4F81EA030404F00044B0
:1003C00021F0004100944FF0000B23F0004350EA6D
:1003D00001045ED052EA03045BD0C3F30A54C1F3B4
:1003E0000A552C44A4F2F3340194A0FB0254C1F347
:1003F000130141F48011C3F3130343F4801301FB91
:10040000024400FB034E840A970A44EA815447EAF7
:100410008357A4FB076802958D0A05FB07854FEA01
:10042000932C04FB0C542705029D4FEA065847EA1B
:100430001637B5EB08056EEB070C870E920E47EAF0
:10044000811742EA8312A7FB0201B6EB0B0164EBB2
:1004500000042B0D43EA0C335E1844EB1C50DA46C3
:100460005146E7FB0201C5F313044FEA0B3343EA9D
:1004700014534FEA0432019C43EA0603A4F10C042E
:100480000294009CCDE900B400F0F8F803B0BDE898
:10049000F08F00200146F9E72DE9F04D81EA0304D1
:1004A00004F0004B21F0004514464FF0000A23F001
:1004B000004150EA050220D054EA01021DD0C5F3E4
:1004C0000A570246C5F31303C1F31300C1F30A56DA
:1004D00040F4801543F48013A7EB0608101BD646A2
:1004E00008F2FD3873EB050002D308F1010801E0C2
:1004F00092185B41B8F1000F03DA00200146BDE815
:10050000F08D00204FF48011064684460EE0171B44
:1005100073EB050705D3121B63EB050306434CEA97
:10052000010C49084FEA300092185B4150EA01077C
:10053000EDD152EA030012D082EA040083EA0501F9
:10054000084305D0101BAB4106D20122002306E070
:1005500000224FF0004302E06FF0010253101AEB4B
:1005600006004CEB085110EB0A0041EB0B01BDE813
:10057000F04D00F074B8C1F30A52C1F3130140F218
:10058000FF3341F480119A4202DA0020014670479D
:1005900040F233439A42A2F2334202DC524200F06C
:1005A0003CB800F02BB8000030B5041E71F1000417
:1005B00004DB4FF00044404264EB0101141E73F170
:1005C000000405DB1C464FF00043524263EB04037A
:1005D000994208BF904230BD064C074D06E0E068E6
:1005E00040F0010394E8070098471034AC42F6D37A
:1005F000FFF7DAFDBC2C0008DC2C0008202A04DB05
:10060000203A00FA02F1002070479140C2F1200325
:1006100020FA03F3194390407047202A04DB203A64
:1006200021FA02F00021704721FA02F3D040C2F112
:1006300020029140084319467047202A06DBCB1759
:10064000203A41FA02F043EAE07306E041FA02F38D
:10065000D040C2F12002914008431946704710B5BE
:10066000141E73F1000408DA401C41F100019218D5
:100670005B411A4301D120F0010010BD2DE9F04D7E
:1006800092469B4611B1B1FA81F202E0B0FA80F2D3
:1006900020329046FFF7B2FF04460F4640EA0A00B8
:1006A00041EA0B0153465A46084313D0114653EA18
:1006B000010019D0C8F140025046FFF7AEFF0546D1
:1006C0000E46504659464246FFF798FF084305D06C
:1006D000012004E020463946BDE8F08D00200543A6
:1006E00046EAE0762C4337430A986305E40AA0EB18
:1006F00008000022FD0A44EA47540A3002D50020CF
:100700000146E9E7010510196941DDE908450019CD
:100710006941BDE8F04DA2E7FFE7FEE7FFE7FEE72E
:1007200080B540F2026001F0A9F94FF44030012198
:1007300000F006FE40F60000C4F201001821042279
:100740004FF4807300F072FE4FF0806001F04EF8BD
:1007500080BD0000FFE7FEE780B582B08DF807009E
:100760008DF80610009200F07DF89DF8070040001B
:10077000C0B200F0F7FC00F0E5F89DF8060000F0CC
:10078000F1FC00F0DFF800F06DF89DF80700400084
:100790000130C0B200F0E6FC00F0D4F8009800F0A0
:1007A000C5FA00F03DF800F097F89DF806100098A3
:1007B000027842F65440C0F6000001F0CBFD002064
:1007C00002B080BD80B582B08DF807008DF80610AC
:1007D0008DF8052000F046F89DF807004000C0B2F3
:1007E00000F0C0FC00F0AEF89DF8060000F0BAFC86
:1007F00000F0A8F89DF8050000F0B4FC00F0A2F8A5
:1008000000F06AF89DF806109DF8052042F66D404C
:10081000C0F6000001F09EFD002002B080BD000087
:1008200080B584B040F60040C4F2010000904FF45F
:1008300000610022029200F0E5FD00984FF4806113
:1008400001910122039200F0DDFD039800F010FDFC
:1008500000980199029A00F0D5FD039800F008FD78
:1008600004B080BD80B588B040F60040C4F20100FD
:1008700004904FF4006103910122079200F0C2FD41
:10088000039B0498102101910222029200F0CEFDF8
:100890000498079A4FF48061059100F0B3FD019927
:1008A000029A0498059B00F0C1FD079800F0E0FC57
:1008B000039904980022069200F0A4FD079800F026
:1008C000D7FC04980599069A00F09CFD079800F063
:1008D000CFFC08B080BD000080B586B040F6004077
:1008E000C4F2010002904FF400610191002200F077
:1008F00089FD019B029810210222049200F096FDCE
:1009000002984FF4806105910122009200F07AFD77
:10091000009800F0ADFC009A0199029800F072FD79
:10092000009800F0A5FC019B0298049A0421039111
:1009300000F07CFD02980399049A059B00F076FD77
:1009400006B080BD80B586B040F60040C4F201001C
:10095000042102224FF4006300F068FDFFE740F637
:100960000040C4F201004FF4006100F021FE08B124
:10097000FFE7F4E740F60040C4F2010004904FF4B2
:10098000806101910122029200F03CFD029800F08A
:100990006FFC019904980022039200F033FD029845
:1009A00000F066FC039A04984FF40061059100F092
:1009B00029FD0498059B1021022200F037FD06B0A6
:1009C00080BD000080B586B000F056F8012001908F
:1009D00000F078F80220029000F074F803200390F1
:1009E00000F070F80420049000F06CF84FF47A7076
:1009F000059000F067FC019800F0A4F8059800F05D
:100A000061FC029800F09EF8059800F05BFC0398EA
:100A100000F098F8059800F055FC049800F092F862
:100A2000059800F04FFC019800F04CF8029800F097
:100A300049F8039800F046F8049800F043F8059848
:100A400000F040FC019800F0BDF8059800F03AFC79
:100A5000029800F0B7F8059800F034FC039800F015
:100A6000B1F8059800F02EFC049800F0ABF805985A
:100A700000F028FC06B080BD80B584B040F60000D0
:100A8000C4F20100019010210291042203928023FC
:100A900000F0CCFC01980299039A4FF4807300F0A7
:100AA000C5FC01980299039A4FF4007300F0BEFC54
:100AB00001980299039A4FF4806300F0B7FC04B0E8
:100AC00080BD000080B582B08DF807009DF807005A
:100AD000012808D1FFE740F60000C4F201008021A0
:100AE00000F080FC2CE09DF80700022809D1FFE708
:100AF00040F60000C4F201004FF4807100F072FC77
:100B00001DE09DF80700032809D1FFE740F600002B
:100B1000C4F201004FF4007100F064FC0EE09DF897
:100B20000700042809D1FFE740F60000C4F20100E5
:100B30004FF4806100F056FCFFE7FFE7FFE7FFE7B7
:100B400002B080BD80B582B08DF807009DF8070027
:100B5000012808D1FFE740F60000C4F2010080211F
:100B600000F048FC2CE09DF80700022809D1FFE7BF
:100B700040F60000C4F201004FF4807100F03AFC2E
:100B80001DE09DF80700032809D1FFE740F60000AB
:100B9000C4F201004FF4007100F02CFC0EE09DF84F
:100BA0000700042809D1FFE740F60000C4F2010065
:100BB0004FF4806100F01EFCFFE7FFE7FFE7FFE76F
:100BC00002B080BD80B582B08DF807009DF80700A7
:100BD00001281CD1FFE7FFE740F60000C4F2010046
:100BE000802100F0FBFC40B1FFE740F60000C4F2BA
:100BF0000100802100F0F6FB07E040F60000C4F29F
:100C00000100802100F0F6FBFFE7FFE76EE09DF8B2
:100C1000070002281FD1FFE7FFE740F60000C4F2FB
:100C200001004FF4807100F0D9FC48B1FFE740F6B5
:100C30000000C4F201004FF4807100F0D3FB08E023
:100C400040F60000C4F201004FF4807100F0D2FBC6
:100C5000FFE7FFE749E09DF8070003281FD1FFE702
:100C6000FFE740F60000C4F201004FF4007100F00D
:100C7000B5FC48B1FFE740F60000C4F201004FF4B4
:100C8000007100F0AFFB08E040F60000C4F2010084
:100C90004FF4007100F0AEFBFFE7FFE724E09DF8A2
:100CA000070004281FD1FFE7FFE740F60000C4F269
:100CB00001004FF4806100F091FC48B1FFE740F67D
:100CC0000000C4F201004FF4806100F08BFB08E0EB
:100CD00040F60000C4F201004FF4806100F08AFB8E
:100CE000FFE7FFE7FFE7FFE7FFE7FFE702B080BDB1
:100CF000FFE7FEE7FFE7FEE7FFE7FEE780B582B02C
:100D000000208DF8070000F0F5FE3C2001210DF1D8
:100D10000702FFF721FD9DF8071042F68640C0F656
:100D2000000001F017FB02B080BD000080B588B064
:100D30000790079900200590087040F60040C4F223
:100D40000100042102224FF4006300F06FFB012038
:100D500000F08EFA05988DF81B00FFE79DF81B0048
:100D6000072832DCFFE740F60040C4F2010004909F
:100D70004FF480610122039200F044FB039800F0DD
:100D800077FA04984FF4006100F012FC50B1FFE7CD
:100D90009DF81B10802020FA01F207990878104373
:100DA0000870FFE740F60040C4F201004FF4806194
:100DB000002200F027FB012000F05AFAFFE79DF81F
:100DC0001B0001308DF81B00C8E740F60040C4F25C
:100DD000010001904FF400610291012200F012FB2A
:100DE0000198029B1021022200F020FB08B080BD78
:100DF000FFE7FEE780B582B000208DF80700ADF870
:100E00000400FFE79DF80700022814DCFFE79DF8C7
:100E10000720901D40F22001C2F2000111448A1CFB
:100E2000C1B23C20FFF798FCFFE79DF807000130B6
:100E30008DF80700E6E700208DF80700FFE79DF832
:100E4000070001283ADCFFE70020ADF804009DF818
:100E500007000C30C1B23C2001AAFFF77DFCBDF8B1
:100E6000040000F07F00ADF80400BDF8040032215A
:100E700000FB01F000F57A70ADF80400BDF8043015
:100E80009DF8072040F22000C2F20000063030F842
:100E9000121001FB03F120F812109DF8071030F832
:100EA000112042F69B40C0F6000001F053FAFFE724
:100EB0009DF8070001308DF80700C0E702B080BD43
:100EC00080B582B000208DF80700FFF717FFFFE71D
:100ED0009DF80700022810DCFFE79DF8071020208E
:100EE0008840C2B23C201221FFF76CFCFFE79DF85E
:100EF000070001308DF80700EAE740F20400C2F273
:100F000000004168012088470020ADF80400FFE799
:100F1000BDF8040003280DDCFFE79DF8040000F095
:100F20000BF8FFF767FFFFE7BDF804000130ADF8ED
:100F30000400EDE7FFE7FEE780B584B08DF80F0011
:100F400000208DF80E003C200290AB2101910DF1A4
:100F50000E02FFF701FC019902989DF80E2002F0A5
:100F6000F3028DF80E209DF80F309DF80E2042EA16
:100F700083028DF80E209DF80E20FFF723FC04B0AD
:100F800080BD000080B582B0009000980138B0F1BB
:100F9000807F03D3FFE70120019019E0009801381A
:100FA0004EF21401CEF2000108604FF0FF300F2125
:100FB00000F03CF94EF21801CEF20001002008606A
:100FC0004EF21002CEF20002072111600190FFE7FD
:100FD000019802B080BD000080B500F087F980BDA7
:100FE00080B582B04EF68851CEF20001086840F418
:100FF0007000086041F20001C4F20201086840F08C
:1010000001000860FFE741F20000C4F2020000683E
:101010008007002801D4FFE7F5E7FFE741F204016C
:10102000C4F20201086840F08000086000200190CE
:10103000FFE70198FF2805D8FFE7FFE70198013097
:101040000190F6E741F20401C4F20201086840F0A1
:101050009000086000200190FFE70198FF2805D864
:10106000FFE7FFE7019801300190F6E7FFE741F263
:101070000402C4F20202106820F00300106041F282
:101080000001C4F2020108684FF6FF73CFF6F66361
:101090001840086041F20803C4F202034FF41F0035
:1010A000186000200090106041F22C02C4F202028D
:1010B0001060086820F48020086000F005FE0099A8
:1010C0004FF0006000F07EFB02B080BD80B545F2BD
:1010D0000000C4F2000040F20531C0F2050101F049
:1010E00021F830B3FFE745F20000C4F2000000F041
:1010F00019FF014640F23810C2F2000003885A1C62
:10110000028040F23802C2F20002D154008840F25C
:101110001801C2F200010968884209D3FFE745F2CD
:101120000000C4F2000040F2053100F0D7FFFFE7F5
:10113000FFE745F20000C4F2000040F20731C0F2C0
:10114000070100F0EFFF48B1FFE745F20000C4F2ED
:10115000000040F2073100F0C1FFFFE780BD000052
:10116000FFE7FEE780B586B08DF817009DF8170001
:101170008DF8140040F60040C4F201004FF4806185
:101180000022049200F03EF904988DF81600FFE763
:101190009DF81600072846DCFFE79DF814008DF83F
:1011A00015009DF8150000F080008DF815009DF8E1
:1011B000150080280AD1FFE740F60040C4F2010084
:1011C0004FF40061012200F01DF909E040F60040F3
:1011D000C4F201004FF40061002200F013F9FFE7B0
:1011E0009DF8140040008DF814000120019000F0DB
:1011F0003FF8019A40F60040C4F2010002904FF41B
:101200008061039100F0FEF8019800F031F8029837
:101210000399002200F0F6F8FFE79DF81600013070
:101220008DF81600B4E706B080BD000082B08DF8DE
:10123000070000919DF9070000280AD4FFE70098F5
:1012400000019DF907104EF20042CEF200028854D0
:101250000BE0009800019DF8071001F00F014EF619
:101260001452CEF200028854FFE702B0704700002B
:1012700081B08DF8030000208DF802008DF8010088
:10128000FFE79DF801009DF80310884218DAFFE798
:1012900000208DF80200FFE79DF802004F2808DCCF
:1012A000FFE700BFFFE79DF8020001308DF8020064
:1012B000F2E7FFE79DF8010001308DF80100E0E75B
:1012C00001B0704781B00090009840F23401C2F242
:1012D00000010860FFE740F23400C2F2000000683D
:1012E00008B1FFE7F7E701B07047000040F23400B3
:1012F000C2F20000006840B1FFE740F23401C2F2E0
:101300000001086801380860FFE7704780B582B0C7
:10131000019000919DF8041045F20000C4F2000015
:1013200000F01CFEFFE745F20000C4F200000721B8
:1013300000F0B6FE08B9FFE7F5E7019802B080BDFE
:1013400086B005908DF81310002003900290019054
:1013500000900598010E3C20C4F2010050F82100D5
:1013600001900598C0F303400090BDF8140003906D
:101370009DF81600C006002810D5FFE7009903204D
:10138000884002900298059901F40011490C8840A8
:10139000029002990198884301900AE00398059908
:1013A00001F40011490C00FA01F101988843019001
:1013B000FFE79DF8130058B1FFE70398059901F482
:1013C0000011490C00FA01F1019808430190FFE770
:1013D000019805990A0E3C21C4F2010141F822004E
:1013E00006B0704782B00190009100980199486161
:1013F00002B0704782B00190009100980199086195
:1014000002B0704783B0029001918DF803209DF8DF
:10141000030020B1FFE701980299086103E00198F9
:1014200002994861FFE703B07047000087B006905B
:10143000059104920393002001900090059800F01C
:101440000F0001909DF81400C006002814D5FFE796
:10145000049804280AD1FFE7019840F003000190A6
:10146000039A0699C86B1043C86304E00499019875
:1014700008430190FFE7FFE70020ADF80A00FFE70F
:10148000BDF80A00072842D8FFE7BDF80A10039804
:10149000C840C007A0B3FFE7069800680090BDF8F9
:1014A0000A0081000F2000FA01F1009888430090A3
:1014B0000198BDF80A10890000FA01F1009808436C
:1014C00000900598282809D1FFE7BDF80A100120EF
:1014D000884003990840069948610DE0059848281E
:1014E00009D1FFE7BDF80A100120884003990840A0
:1014F00006990861FFE7FFE7009806990860FFE793
:10150000FFE7BDF80A000130ADF80A00B8E708208F
:10151000ADF80A00FFE7BDF80A000F2846D8FFE73C
:10152000BDF80A100398C840C007C0B3FFE706988B
:1015300040680090BDF80A006FF01F0101EB8002C7
:101540000F2000FA02F20098904300900198BDF835
:101550000A2001EB820100FA01F100980843009093
:101560000598282809D1FFE7BDF80A100120884016
:1015700003990840069948610DE00598482809D16B
:10158000FFE7BDF80A10012088400399084006993A
:101590000861FFE7FFE7009806994860FFE7FFE76B
:1015A000BDF80A000130ADF80A00B4E707B0704793
:1015B00083B001900091019880680099084204D09E
:1015C000FFE701208DF80B0003E000208DF80B00F1
:1015D000FFE79DF80B0003B07047000083B0019057
:1015E00000910198C0680099084204D0FFE70120EB
:1015F0008DF80B0003E000208DF80B00FFE79DF84D
:101600000B0003B07047000080B584B0002001904B
:101610000390FFF7E5FCFFF783F8019A35201146A8
:1016200000F02CF800F054FB00F032FC45F2000012
:10163000C4F2000040F2073100F062FD42F646407D
:10164000C0F6000000F086FEFFF7BCF940F204008F
:10165000C2F20000029081680120884702988168E8
:101660000220884702988168032088470298816891
:1016700004208847FFE7FFF723FCFCE780B584B030
:101680008DF80F008DF80E108DF80D2000200290BF
:10169000019000904EF60C50CEF20000006800F46D
:1016A000E060B0F5E06F05D1FFE700200190042075
:1016B00000904AE04EF60C50CEF20000006800F4B4
:1016C000E060B0F5C06F05D1FFE701200190032075
:1016D000009039E04EF60C50CEF20000006800F4A5
:1016E000E060B0F5A06F04D1FFE702200190009008
:1016F00029E04EF60C50CEF20000006800F4E060E5
:10170000B0F5806F05D1FFE7032001900120009024
:1017100018E04EF60C50CEF20000006800F4E060D5
:10172000B0F5407F05D1FFE7042001900020009034
:1017300007E04FF4A06000F037F80220019000901D
:10174000FFE7FFE7FFE7FFE7FFE79DF80E000199DE
:10175000C1F10401884002909DF80D000099C1F18B
:1017600004020F21D14001400298084302900298E0
:101770000001029002989DF80F104EF20042CEF246
:10178000000288549DF80F2002F01F0101208840BC
:101790004EF20011CEF2000141EAD20121F0030124
:1017A000086004B080BD000081B000900098002166
:1017B000C0F2FA5108434EF60C51CEF20001086017
:1017C00001B0704782B001900091019800994FF6E6
:1017D0008072C1F6FF72114008434EF60851CEF2F6
:1017E00000010860BFF34F8F02B0704782B00190D4
:1017F00041F20401C4F2020108680090009820F050
:10180000E06000900098019A1043086002B07047B1
:1018100099B08DF8630000201690119040F2067187
:10182000C0F60811099140F20121C0F2034108916C
:1018300007900690059104900391029041F20400F4
:10184000C4F202000068C0F381001790179801905D
:1018500040B1FFE7019801280AD0FFE7019802286C
:101860000CD084E041F20020C0F27A00159084E0B0
:1018700041F20020C0F27A0015907EE041F20400AF
:10188000C4F20200006800F4803010901098B0F5A7
:10189000803F2BD1FFE741F22C00C4F20200006828
:1018A00000F080400F900F9830B9FFE741F2002020
:1018B000C0F27A000C9005E046F60040C0F2DC2051
:1018C0000C90FFE741F20400C4F20200006800F44B
:1018D00000300E900E98B0F5003F06D1FFE740F6BD
:1018E0000010C0F23D000C90FFE705E040F600104C
:1018F000C0F23D000C90FFE741F20400C4F2020088
:101900000168C1F383410D9100680001002805D5ED
:10191000FFE70D9840F010000D90FFE741F2040042
:10192000C4F2020000684000002805D5FFE70D98CA
:1019300040F020000D90FFE70D980E2804D8FFE737
:101940000D9802300D900CE00D980F2808D3FFE79A
:101950000D98402804D8FFE70D9801300D90FFE75F
:10196000FFE70C980D9900FB01F0159005E041F29E
:101970000020C0F27A001590FFE741F20400C4F2A3
:1019800002000168C9B209090B910B9A06A9895C8A
:101990000A9115990A9AD14014910168C1F3022164
:1019A0000B910B9A04A9895C0A9114990A9AD14067
:1019B00013910068C0F3C2200B900B9902A8405C01
:1019C0000A9014980A99C84012909DF86300014645
:1019D000009104284ED80099DFE801F00306090CB5
:1019E0000F001598169046E01498169043E013984F
:1019F000169040E0129816903DE041F2D400C4F2F7
:101A000002000068800718B9FFE7129811902EE0D5
:101A100041F2D400C4F20200006800F00300012883
:101A200003D1FFE71598119020E041F2D400C4F2F1
:101A30000200006800F00300022804D1FFE74FF421
:101A40000040119011E041F2D400C4F2020000689D
:101A500000F00300032806D1FFE741F20020C0F2A6
:101A60007A00119000E0FFE7FFE7FFE7FFE711983A
:101A7000169000E0FFE7169819B0704781B0ADF8F6
:101A80000200BDF8020000F01F02012101FA02F37A
:101A9000810941F20002C4F20202885818438850BA
:101AA00001B0704781B0ADF80200BDF8020000F04F
:101AB0001F02012101FA02F3810941F20002C4F27E
:101AC000020288589843885001B0704781B0ADF841
:101AD0000200BDF8020000F01F02012101FA02F32A
:101AE000810941F20002C4F202028858184388506A
:101AF00001B0704780B582B040F20360FFF7BEFFCF
:101B000040F60040C4F2010001904FF40061012250
:101B10000092FFF777FC009A01984FF48061FFF77D
:101B200071FC0198102103224FF44063FFF77EFC03
:101B300002B080BD85B000200490039041F2000205
:101B4000C4F20202116841F4803111600290FFE793
:101B500002990020B0EB113F05D1FFE7FFE70298A3
:101B600001300290F4E7FFE704980130049041F25D
:101B70000000C4F20200006800F400300390FFE7A8
:101B800003990020019041B9FFE704984FF6FF71D7
:101B9000401A18BF01200190FFE70198C0070028F4
:101BA000E2D1FFE741F20000C4F2020000688003C6
:101BB000002802D4FFE7FFE7FEE742F20001C4F28B
:101BC00002010868042262F30200086041F21C016D
:101BD000C4F20201086840F08050086041F204013C
:101BE000C4F202010091086808600868086008688B
:101BF00040F480600860086820F44030086008689D
:101C000040F44030086008684FF6FF72CBF2C372B0
:101C10001040086008680022C4F2300210430860D7
:101C200041F20001C4F20201086840F080700860CF
:101C3000FFE741F20000C4F20200006880010028C2
:101C400001D4FFE7F5E747F20001C4F2000108689C
:101C500040F480300860FFE747F20400C4F200005F
:101C60000068C003002801D4FFE7F5E747F2000150
:101C7000C4F20001086840F400300860FFE747F252
:101C80000400C4F2000000688003002801D4FFE7CC
:101C9000F5E741F20401C4F20201086820F00300F4
:101CA0000860086840F002000860FFE741F20400A5
:101CB000C4F20200006800F00C00082801D0FFE721
:101CC000F4E705B07047000080B5FFF733FF80BD33
:101CD00080B540F21400C2F20000006844F6D3510F
:101CE000C1F26201A0FB01108009FFF74BF910B1AE
:101CF000FFE7FFE7FEE74FF0FF300021FFF796FA1E
:101D000080BD000080B588B0079006910020059046
:101D10000490039002900798019044F20041C4F2AD
:101D20000001884232D0FFE7019844F60001C4F276
:101D3000000188422FD0FFE7019844F60041C4F229
:101D4000000188422CD0FFE7019845F20001C4F25F
:101D50000001884229D0FFE7019843F60001C4F250
:101D60000101884208D0FFE7019847F20001C4F260
:101D70000101884205D01DE00320FFF749FD0590D1
:101D800019E00420FFF744FD059014E00220FFF75E
:101D90003FFD05900FE00220FFF73AFD05900AE0B5
:101DA0000220FFF735FD059005E00220FFF730FD2A
:101DB000059000E0FFE7079847F20001C4F2010137
:101DC000884231D1FFE7079800680004002812D547
:101DD000FFE705984000069900EB5100B0FBF1F0D9
:101DE000029002984FF6F071084004900298C0F3F8
:101DF0004200039010E00598069900EB5100B0FBFB
:101E0000F1F0029002984FF6F071084004900298A9
:101E100000F00F000390FFE7BDF81000BDF80C10B4
:101E200008430799C86030E00798C068000400289C
:101E300012D5FFE705984000069900EB5100B0FB72
:101E4000F1F0029002984FF6F07108400490029869
:101E5000C0F34200039010E00598069900EB510092
:101E6000B0FBF1F0029002984FF6F0710840049038
:101E7000029800F00F000390FFE7BDF81000BDF8D6
:101E80000C10084307998860FFE708B080BD000088
:101E900080B584B040F20460FFF7F0FD40F20560C9
:101EA000FFF7ECFD40F21470FFF7E8FD41F200008F
:101EB000C4F201001821032200924FF48053FFF76F
:101EC000B5FA009A41F20040C4F2010004230293E3
:101ED0001946FFF7ABFA45F20000C4F20000039088
:101EE00000F058F803980021019100F007FA0199D9
:101EF000039800F0A5F90199039800F043F90398BD
:101F00004FF4E131FFF7FEFE0299039800F066F905
:101F10000398082100F0C0F9039800F0A9F804B074
:101F200080BD000082B00090009847F20001C4F22A
:101F30000101884207D1FFE70098406A6FF35F20F4
:101F4000ADF8060006E0009840686FF35F20ADF83A
:101F50000600FFE7BDF8060002B0704782B00190AE
:101F6000ADF80210019847F20001C4F20101884265
:101F700007D1FFE7BDF802006FF35F200199886287
:101F800006E0BDF802006FF35F2001994860FFE7AB
:101F900002B0704780B588B007900798069044F269
:101FA0000041C4F20001884231D0FFE7069844F6B0
:101FB0000001C4F20001884232D0FFE7069844F6DF
:101FC0000041C4F2000188423CD0FFE7069845F288
:101FD0000001C4F2000188423DD0FFE7069843F6B5
:101FE0000001C4F20101884208D0FFE7069847F2D9
:101FF0000001C4F2010188421BD035E040F20E30EE
:102000000590FFF763FD0598FFF74CFD2DE040F2CA
:1020100011400490FFF75AFD0498FFF743FD24E0B8
:1020200040F212400390FFF751FD0398FFF73AFD8D
:102030001BE04FF447700290FFF748FD0298FFF74E
:1020400031FD12E040F213400190FFF73FFD01988F
:10205000FFF728FD09E040F214400090FFF736FD3D
:102060000098FFF71FFD00E0FFE708B080BD00000B
:1020700081B00090009847F20001C4F2010188424B
:1020800006D1FFE70099086840F00100086005E00C
:102090000099C86840F40050C860FFE701B070477D
:1020A00083B00190ADF802100198BDF802108909C3
:1020B0004058BDF8021001F01F01C840C00720B110
:1020C000FFE701208DF80B0003E000208DF80B00E6
:1020D000FFE79DF80B0003B07047000082B001904D
:1020E000ADF80210BDF8020000F01F02012101FA54
:1020F00002F30199820988589843885002B07047CA
:1021000082B00190ADF80210BDF8020000F01F028D
:10211000012101FA02F30199820988581843885075
:1021200002B0704785B003900291002001900090AA
:102130000398BDF8081089094058029901F01F0260
:10214000012101FA02F2104001900398029A920DC7
:102150008058029AC2F304429140084000900098CF
:1021600038B1FFE7019820B1FFE701208DF8130097
:1021700003E000208DF81300FFE79DF8130005B081
:102180007047000082B001900091019847F2000171
:10219000C4F20101884212D1FFE70199086820F0DA
:1021A000010008600199086820F4C0600860009888
:1021B00000F4C06201990868104308600CE00199BE
:1021C000C86820F4C060C860009800F4C06201993B
:1021D000C8681043C860FFE702B0704783B0029040
:1021E000019100200090029847F20001C4F2010121
:1021F000884211D1FFE7029800680090009820F013
:1022000004000090019800F0040100980843009039
:1022100000980299086010E00298C0680090009849
:1022200020F004000090019800F004010098084399
:10223000009000980299C860FFE703B07047000063
:1022400082B001900091019847F20001C4F20101AF
:10225000884212D1FFE70199086820F00100086068
:102260000199486820F440504860009800F44052BA
:1022700001994868104348600CE00199086920F40E
:1022800040500861009800F44052019908691043D9
:102290000861FFE702B0704783B00290019100200F
:1022A0000090029847F20001C4F20101884211D166
:1022B000FFE7029800680090009820F00800009066
:1022C000019800F0080100980843009000980299D6
:1022D000086010E00298C0680090009820F00800A4
:1022E0000090019800F008010098084300900098C1
:1022F0000299C860FFE703B07047000082B0019008
:102300000091019847F20001C4F20101884212D104
:10231000FFE70199086820F001000860019908684A
:1023200020F480500860009800F4805201990868F9
:10233000104308600CE00199C86820F48050C86020
:10234000009800F480520199C8681043C860FFE704
:1023500002B070470FB4054B10B503A9044A0298A8
:1023600000F0DAF810BC5DF814FB00000D13000853
:102370000000002002E008C8121F08C1002AFAD19C
:1023800070477047002001E001C1121F002AFBD1F5
:10239000704700002DE9FF5F82B00021DDE90430C5
:1023A000020DDDF840B0034318D044F61050A2F2FD
:1023B000FF3242431514119801281FD0A5EB0B00E2
:1023C000401C5FEA000A4FF000064E4FDFF83891DC
:1023D000B046504615D5CAF1000413E01198012407
:1023E0004AA3012801D16FEA0B010298119AC0E9B2
:1023F0000031C0E9024206B0BDE8F09FCBF1000019
:10240000DFE704460021404A491842EB0450CDE979
:10241000001012E0E00707D032463B4640464946EE
:10242000FDF7C8FF8046894632463B4610461946AE
:10243000FDF7C0FF06460F466410002CEAD1DDE927
:102440000401DDE90023BAF1000F06DAFDF7B2FF5F
:1024500042464B46FDF7AEFF05E0FEF71DF842464B
:102460004B46FEF719F804460E460022284BFEF7AD
:102470009BF803D84FF0FF30014607E00022254BC0
:1024800020463146FDF7EFFEFEF775F8102409E00F
:10249000002C0ADB0A220023FDF7B4FE039B303236
:1024A0001A55641E50EA0102F2D1641C039AC4F169
:1024B00011031444119A012A03D0012208430DD1BB
:1024C0000AE0084304D000204FF0110B119072E78E
:1024D000A3EB0B056D1E0DE05B4504DD4FF0000224
:1024E00005F1010504E003DA4FF00002A5F1010552
:1024F000002AECD002981199C0E90231C0E90045E8
:1025000079E70000000014400000F03F30000000B8
:102510000000F0430000E03F2DE9FF4F95B09B46DF
:102520008946064600250FE2252877D10024274654
:10253000F84A0121059400E0044316F8013F203BCE
:1025400001FA03F01042F7D130782A2811D06FF049
:102550002F033078A0F13002092A16D8059A44F0EA
:10256000020402EB820203EB42021044761C059047
:10257000EFE759F8042B0592002A03DA504244F49D
:102580000054059044F00204761C30782E2816D1B1
:1025900016F8010F44F004042A280DD06FF02F0222
:1025A0003078A0F13003092B09D807EB870302EB41
:1025B0004303C718761CF3E759F8047B761C307880
:1025C0006C280FD006DC4C2817D068280DD06A285C
:1025D00014D104E0742810D07A280FD10DE044F40F
:1025E00000140AE044F4801401E044F440147278CA
:1025F000824202D104F58014761C761C307866285D
:102600000BD013DC582877D009DC002875D045287A
:10261000F6D04628F4D047281AD19DE118E0632867
:1026200035D0642879D0652812D195E1702873D00F
:1026300008DC6728F1D069286FD06E280DD06F288C
:1026400006D1B5E073282CD0752875D0782874D0C1
:102650005A46179990476D1C75E1C4F30250022841
:1026600009D003280DD0D9F8001004280DD00D6032
:1026700009F1040967E1D9F80010EA17C1E900522D
:10268000F6E7D9F800100D80F2E70D70F0E719F8C1
:10269000041B8DF8001000208DF80100EA4601208F
:1026A00003E059F804AB4FF0FF3061074FF0000131
:1026B00002D40DE008F101018846B9420FDA8045E5
:1026C000F8DB1AF808100029F4D108E008F101013C
:1026D00088468142FADB1AF808100029F6D10598DD
:1026E0005B46A0EB080721463846179A00F094FA9B
:1026F000284400EB080507E04DE029E10DE01AF859
:10270000010B5A4617999047B8F10108F7D25B467A
:1027100021463846179A13E142E00A220092C4F398
:1027200002524FF0000A022A08D059F804CB032ABB
:102730004FEAEC710AD00DE029E02AE009F1070127
:1027400021F00702F2E802C1914609E00FFA8CFC81
:102750004FEAEC71042A03D14FFA8CFC4FEAEC717A
:10276000002907DA0A460021DCF1000C61EB0201C6
:102770002D2202E0220504D52B228DF8042001220F
:1027800003E0E20701D02022F7E7904659E00A2152
:1027900002E010220DE010214FF0000A00910BE042
:1027A00010224FF0000A44F004040827009203E0CE
:1027B00008224FF0000A0092C4F30252022A05D008
:1027C00059F804CB0021032A08D009E009F10701D8
:1027D00021F00702F2E802C1914605E01FFA8CFCE5
:1027E000042A01D10CF0FF0C4FF00008220728D575
:1027F000702806D0009B83F0100353EA0A0305D02B
:102800000EE040228DF80420012208E05CEA01027B
:1028100006D030228DF804208DF805000222904663
:10282000009B83F0080353EA0A030AD15CEA010221
:1028300001D1620705D530228DF804204FF0010840
:102840007F1E582804D034A003900EA802900DE0FB
:1028500036A0F9E753466046009AFDF7D3FC84465C
:102860000398825C0298401E029002705CEA0100AC
:10287000F0D1029806A9081A00F1200A600702D5D3
:1028800024F4803400E00127574502DDA7EB0A005D
:1028900000E0002000EB0A01009005984144401A36
:1028A0000590E00306D45B462146179A059800F090
:1028B000B3F90544002706E001A85A46C05D179900
:1028C00090476D1C7F1C4745F6DBE0030CD55B464B
:1028D0002146179A059800F09FF9054404E030203E
:1028E0005A46179990476D1C0099481E0090002980
:1028F000F5DC08E0029802995A460078491C0291DA
:10290000179990476D1CBAF10001AAF1010AF1DC98
:1029100065E10000092801003031323334353637A3
:10292000383961626364656600000000303132331B
:1029300034353637383941424344454600000000BB
:1029400000F058F90544761C307800287FF4ECAD8F
:1029500019B02846BDE8F08F620700D4062709F1B8
:10296000070222F0070CFCE80223E14603F00048CE
:102970005FEA080C02D00FF2702C0DE05FEA045CF5
:1029800002D50FF2682C07E05FEAC47C02D00FF298
:10299000602C01E0AFF2700C4FF0FF3823F00043E1
:1029A000CDF850C065280CD006DC452809D0462853
:1029B0001DD047283DD13DE0662818D067287ED13C
:1029C00038E00021112F01DB112000E0781CCDE957
:1029D000000106A90EA8FFF7DDFCDDE90F010E9A44
:1029E00003910021009207F1010A04914DE04FF09C
:1029F00000400097CDE9011006A90EA8FFF7CAFC18
:102A0000DDE90F0203920E9B11990022DDF80CA064
:102A10000093049211B9791C00EB010AB7EB0A008C
:102A200004D4C0F1FF3007F1010A0490AAEB0700BB
:102A3000019044E0012F00DA01270021112F01DD70
:102A4000112000E03846CDE9000106A90EA8FFF7E5
:102A5000A1FCDDE90F010E9A03910021049100927F
:102A6000BA4621070CD40399514500DA8A46BAF1D7
:102A7000010F05DD009AAAF10101515C302908D04F
:102A8000B84202DA10F1040F06DA0121CDE9011093
:102A900015E0AAF10101E9E7002805DC04990144E9
:102AA0000491AAEB000102E0411C514500DD8A4679
:102AB0000499401A401C01904FF0004002902007FA
:102AC00004D40198504501DBCDF8048000208DF836
:102AD0004F0002980DF14F07B0F1004F25D02B2089
:102AE0000E9002984FF0020800280CDA4042029043
:102AF0002D200E9007E00A210298FDF76DFB303182
:102B0000029007F8011DB8F10001A8F10108F2DCFC
:102B100002980028EFD1791E0E980870307800F0E6
:102B2000200040F0450007F8020D12A8C01B00F17C
:102B300007081498007800B1012000EB0A01019801
:102B400001EBE07105984144401A401E0590E003F6
:102B500006D45B462146179A059800F05DF80544B7
:102B60001498007818B15A46179990476D1CE003E5
:102B700024D55B462146179A059800F04DF8054488
:102B80001CE00498002807DBDDE90301884203DD2F
:102B90000098405C179901E0179930205A469047F9
:102BA000049805F10105401C04900198401E019015
:102BB00004D12E205A46179990476D1CBAF1000196
:102BC000AAF1010ADDDC05E017F8010B5A46179956
:102BD00090476D1CB8F10001A8F10108F4DC5B46D8
:102BE0002146179A0598ABE62D0000002B00000047
:102BF000200000002DE9F041044600251E4617463E
:102C0000880404D405E039462020B0476D1C641EBA
:102C1000F9D52846BDE8F0812DE9F04104460025AC
:102C20001E469046C80301D5302700E020278804BF
:102C300004D505E041463846B0476D1C641EF9D501
:102C40002846BDE8F0815359535F496E69745F4F60
:102C50004B0D0A00522041647220252378203A202F
:102C600056616C756520252378200D0A0057204198
:102C7000647220252378203A2056616C75652025E2
:102C80002378200D0A0056657273696F6E5F4E756A
:102C90006D203D20307825780D0A00504F52545F4A
:102CA00025645F43555252454E545F4C494D49543B
:102CB000494E47203D202564206D4100E02C00084E
:102CC000000000202000000074230008002D0008F0
:102CD00020000020200500008423000800000000E0
:102CE00000000000790A0008450B0008C50A00082A
:102CF000C50B00080095BA0A0001000000000000A2
:04000005080001A14D
:00000001FF
