:020000040800F2
:10000000F80B0020C5010008890300080D03000853
:1000100085030008050300082D0800080000000003
:100020000000000000000000000000004D07000874
:1000300009030008000000004907000851070008F4
:10004000DF010008DF010008DF010008DF01000810
:10005000DF010008DF010008DF010008DF01000800
:10006000DF010008DF010008DF010008DF010008F0
:10007000DF010008DF010008DF010008DF010008E0
:10008000DF010008DF010008DF010008DF010008D0
:10009000DF010008DF010008DF010008DF010008C0
:1000A000DF010008DF010008DF010008DF010008B0
:1000B000DF010008DF010008DF010008DF010008A0
:1000C000DF010008DF010008DF010008DF01000890
:1000D000DF010008DF010008DF010008DF01000880
:1000E000DF010008DF010008DF010008DF01000870
:1000F000DF010008DF010008DF010008DF01000860
:10010000DF010008DF010008DF010008DF0100084F
:10011000DF010008DF010008DF010008DF0100083F
:10012000DF010008DF010008DF010008DF0100082F
:10013000DF010008DF010008DF010008DF0100081F
:10014000DF010008DF010008DF010008DF0100080F
:10015000DF010008DF010008DF010008DF010008FF
:10016000DF010008DF010008DF010008DF010008EF
:10017000DF010008DF010008DF01000800000000C7
:10018000DF010008DF010008DF010008DF010008CF
:10019000DF010008DF010008DF01000800000000A7
:1001A000DF010008DF010008DF010008DFF810D0E0
:1001B00000F04CF800480047B9170008AFF3008082
:1001C000F80B00200648804706480047FEE7FEE798
:1001D000FEE7FEE7FEE7FEE7FEE7FEE7FEE7FEE7F7
:1001E00059070008AD0100082DE9F05F0546002021
:1001F00092469B4688460646814640241BE0284698
:1002000041464746224600F042F853465A46C01A35
:10021000914110D311461846224600F029F82D1AB4
:1002200067EB01084F4622460120002100F020F82C
:1002300017EB00094E41201EA4F10104DFDC484603
:1002400031462A464346BDE8F09F0000064C074D64
:1002500006E0E06840F0010394E807009847103496
:10026000AC42F6D3FFF7A6FF38270008582700084E
:10027000202A04DB203A00FA02F100207047914066
:10028000C2F1200320FA03F3194390407047202A5B
:1002900004DB203A21FA02F00021704721FA02F330
:1002A000D040C2F12002914008431946704770B512
:1002B0008C1810F8015B15F0070301D110F8013B11
:1002C0002A1106D110F8012B03E010F8016B01F898
:1002D000016B5B1EF9D12B0705D40023521E0DD4F0
:1002E00001F8013BFAE710F8013BCB1A921C03E03E
:1002F00013F8015B01F8015B521EF9D5A142D8D376
:10030000002070BD00BFFEE700BFFEE700BFFEE7B4
:1003100010B54FF48051094801F00FF84FF4006117
:10032000064801F00AF84FF40061044801F003F8B0
:100330004FF48051014800F0FEFF10BD0000024064
:1003400010B54FF48051074800F0F7FF4FF40061FB
:10035000044800F0F0FF4FF40061024800F0EDFFA8
:1003600010BD00000000024010B54FF48051044859
:1003700000F0E3FF4FF48051014800F0DCFF10BDB6
:100380000000024000BFFEE700BFFEE710B50028F6
:1003900007DA0A07140E054A00F00F031B1FD45496
:1003A00003E00A07130E024A135410BD18ED00E0D3
:1003B00000E400E070B5002418E004F1B000002172
:1003C00000F0B6F90021084600F0B2F90021102033
:1003D00000F0AEF9002505E00121002000F0A8F9A9
:1003E000681CC5B2802DF7DB601CC4B2082CE4DBAE
:1003F00070BD2DE9F05F06460F4690461C46DDF8BD
:1004000028A04FF0000BE11704EB5171C910A4EBC9
:10041000C10131B92046E11704EB5171C1F3C705A1
:1004200006E02046E11704EB5171C910491CCDB21A
:100430003D4615E02946304600F09CF8B1460BE0F9
:1004400059460BF1010B1AF80100012100F070F977
:1004500009F1010000F0FF09C145F1DB681CC5B2DC
:10046000A542E7DBBDE8F09F10B540F6014001F082
:1004700067FB4FF4C053002201213D4800F08EFF7E
:100480004FF4C05302220021394800F0AEFF4FF470
:10049000487000F073FC0021AE2000F049F9002103
:1004A000084600F045F90021102000F041F9002134
:1004B000402000F03DF90021B02000F039F9002182
:1004C000812000F035F90021FF2000F031F90021F2
:1004D000A12000F02DF90021A62000F029F900212B
:1004E000A82000F025F900213F2000F021F900218B
:1004F000C82000F01DF90021D32000F019F90021D7
:10050000084600F015F90021D52000F011F900216E
:10051000802000F00DF90021D82000F009F9002119
:10052000052000F005F90021D92000F001F9002193
:10053000F12000F0FDF80021DA2000F0F9F80021A8
:10054000122000F0F5F80021DB2000F0F1F8002186
:10055000302000F0EDF800218D2000F0E9F80021B6
:10056000142000F0E5F80021AF2000F0E1F810BD04
:100570000000024070B504460D4605F1B0000021B0
:1005800000F0D6F8102141EA1410002100F0D0F854
:1005900004F00F00002100F0CBF870BD2DE9F04110
:1005A00080460E461546002731464046FFF7E2FFDB
:1005B00000240AE0124A02EB8511085D012100F0D7
:1005C000B7F8781CC7B2601CC4B2102CF2DB701CE8
:1005D000C1B24046FFF7CEFF00240CE06900491C81
:1005E000074A02EB4111085D012100F0A1F8781CD7
:1005F000C7B2601CC4B2102CF0DBBDE8F081000073
:10060000710000202DE9F04707460E4690469946B6
:1006100000250024A8F12000C5B27F2F02DD0027AD
:10062000B01CC6B2B9F1100F24D131463846FFF7DD
:10063000A1FF002408E004EB0511194A505C0121D8
:1006400000F076F8601CC4B2082CF4DB701CC1B258
:100650003846FFF78FFF002409E004EB051108314D
:100660000F4A505C012100F063F8601CC4B2082CF2
:10067000F3DB12E031463846FFF77CFF00240AE046
:1006800005EB4501074A02EB4101085D012100F03D
:100690004FF8601CC4B2062CF2DBBDE8F087000006
:1006A00048210008201F00082DE9FF5F07469146FA
:1006B0001E460E9D4FF0000A002435E0301B401E00
:1006C000C1B20A2001F09EF9B9FBF0F00A21B0FB9B
:1006D000F1F201FB1208BAF1000F14D1701EA04212
:1006E00011DDB8F1000F0CD1AB4605EBDB71491001
:1006F00001FB0471C8B22B4620220199FFF782FF4B
:1007000010E04FF0010AAB4605EBDB71491001FB2D
:100710000471C8B208F13001CAB22B460199FFF743
:1007200071FF00BF601CC4B2B442C7DBBDE8FF9FCD
:1007300070B504460D461DB1E0B200F0BDF802E010
:10074000E0B200F0A3F870BD00BFFEE700BFFEE717
:1007500010B500F01DFB10BD08B53048006840F42E
:1007600070002E4908602E48006840F001002C49B6
:10077000086000BF2A48006800F002000028F9D095
:1007800000BF27480830006840F080002449083145
:1007900008600020009002E00098401C0090009843
:1007A0005028F9D31E480830006840F090001C49DA
:1007B000083108600020009002E00098401C009082
:1007C00000985028F9D300BF15480830006820F081
:1007D00003001349083108601148006811490840B6
:1007E0000F4908600846006820F480200860002057
:1007F0000B490831086000BF094808300068002034
:100800000028F9D108480649091D0860002004495C
:100810000C31086001F04EFA08BD000088ED00E0E0
:1008200000380240FFFFF6FE1030002400BFFEE754
:100830002DE9F04105462C464FF48051124800F056
:100840007AFD00261CE0274607F08007802F04D1A0
:1008500039010D4800F071FD04E04FF400610A48D1
:1008600000F069FD6006040E4FF48051064800F068
:1008700064FD4FF48051044800F05DFD701CC6B269
:10088000082EE0DBBDE8F0810000024010B5044610
:10089000FFF73EFD7820FFF7CBFFFFF765FD002057
:1008A000FFF7C6FFFFF760FD2046FFF7C1FFFFF728
:1008B0005BFDFFF745FD10BD10B50446FFF728FDB1
:1008C0007820FFF7B5FFFFF74FFD4020FFF7B0FF9F
:1008D000FFF74AFD2046FFF7ABFFFFF745FDFFF7A7
:1008E0002FFD10BD0FB4054B10B503A9044A0298A3
:1008F00000F018F810BC5DF814FB00007911000836
:10090000F407002002E008C8121F08C1002AFAD12B
:1009100070477047002001E001C1121F002AFBD17F
:10092000704700002DE9FF4F8DB00F4605460026A9
:1009300006E025280BD0DDE90F1290476D1C761CD0
:1009400028780028F5D111B03046BDE8F08F00249A
:10095000A246A1460122E94900E0044315F8013FFF
:10096000203B02FA03F00842F7D128782A2810D059
:100970006FF02F022878A0F13001092914D80AEB72
:100980008A0102EB410144F0020400EB010A6D1CF4
:10099000F0E701CF5FEA000A03D544F40054CAF13E
:1009A000000A44F002046D1C28782E2817D115F88F
:1009B000010F44F004042A280ED06FF02F0228788B
:1009C000A0F1300109290AD809EB890102EB4101A4
:1009D00000EB01096D1CF2E757F8049B6D1C2878A9
:1009E0006C280FD006DC4C2817D068280DD06A2858
:1009F00014D104E0742810D07A280FD10DE044F40B
:100A000000140AE044F4801401E044F440146978CE
:100A1000814202D104F580146D1C6D1C28786E286B
:100A20001ED00CDC632830D004DC00288BD0582882
:100A300011D19FE0642867D069280CD164E0732845
:100A40002DD004DC6F2872D0702804D194E0752872
:100A50006ED078286DD0DDE90F129047761C4BE1FF
:100A6000C4F30250022806D0032809D0042801CF7D
:100A700009D0066040E101CFF117C0E900613BE118
:100A800001CF068038E1067036E117F8040B8DF8C7
:100A9000000000208DF80100EB46012003E057F82C
:100AA00004BB4FF0FF3061074FF0000102D40DE0AE
:100AB00008F10101884649450FDA8045F8DB1BF84B
:100AC00008100029F4D108E008F1010188468142AC
:100AD000FADB1BF808100029F6D1DDE90F23AAEB99
:100AE00008008146214600F031F9304400EB080649
:100AF00004E0DDE90F121BF8010B9047B8F1010883
:100B0000F7D221464846F2E00A21C4F302524FF0E0
:100B1000000B0891022A04D001CFC117032A09D083
:100B20000AE0FF1D27F00707F7E8020108E02CE0C4
:100B30001EE01FE000B2C117042A01D140B2C11764
:100B4000021E71F1000206DA0023D0EB030063EB12
:100B500001012D2202E0220504D52B228DF824204C
:100B6000012203E0E20701D02022F7E7904653E09C
:100B70000A210BE0102109E010214FF0000B44F096
:100B800004044FF00809089103E008214FF0000B1E
:100B90000891C4F30252022A04D001CF0021032A93
:100BA00006D006E0FF1D27F00707F7E8020103E083
:100BB00080B2042A00D1C0B24FF0000822072BD522
:100BC0002A78702A07D0DDF820C08CF0100C5CEA7F
:100BD0000B0C05D00EE040228DF82420012208E005
:100BE00050EA010306D030238DF824308DF82520FB
:100BF00002229046089B83F0080353EA0B030BD1B3
:100C000050EA010201D1620706D530228DF8242076
:100C10004FF00108A9F101092A78582A04D038A216
:100C20000B9208AA0A920BE03AA2F9E75B46089AEF
:100C3000FFF7DAFA0B9B9B5C0A9A521E0A9213701A
:100C400050EA0102F2D10A98ADEB000000F1200B4E
:100C5000600702D524F4803401E04FF00109D94542
:100C600002DDA9EB0B0000E0002000EB0B0141448A
:100C70000890AAEB010AE00306D4DDE90F23214620
:100C8000504600F063F806444FF0000908E009A957
:100C900011F80900DDE90F12904709F10109761CEE
:100CA000C145F4DBE0030CD5DDE90F2321465046B6
:100CB00000F04CF8064404E0DDE90F1230209047C4
:100CC000761C0899481E08900029F5DC08E00A986F
:100CD0000A990078491C0A91DDE90F129047761CA9
:100CE000BBF10001ABF1010BF1DC21465046DDE91F
:100CF0000F2300F019F806446D1C21E609280100B5
:100D00003031323334353637383961626364656681
:100D10000000000030313233343536373839414243
:100D200043444546000000002DE9F04104460025FB
:100D30001E461746880404D405E039462020B047F3
:100D40006D1C641EF9D52846BDE8F0812DE9F041FF
:100D5000044600251E469046C80301D5302700E012
:100D60002027880404D505E041463846B0476D1C6D
:100D7000641EF9D52846BDE8F081000003490860EB
:100D800000BF024909680029FBD170470400002018
:100D90000448006820B103480068401E014908600B
:100DA000704700000400002070B505460E4614464A
:100DB00000BF40F20161534800F099FC0028F8D1CF
:100DC000022C03D1A1024F4800F0D2FB4D4800F0A5
:100DD000B5FC00BF4FF4A0614A4800F088FC002831
:100DE000F8D06FF0010248480188464800F08EFCB8
:100DF00000BF40F20151434800F079FC0028F8D0D0
:100E000040F201513F4800F05EFC00BF40F2075144
:100E10003C4800F06CFC0128F8D13A4800F04EFC48
:100E20003146384800F040FC00BF40F202513548DE
:100E300000F05DFC0028F8D0324800F07FFC00BFD5
:100E40004FF4A0612F4800F052FC0028F8D0012296
:100E50002D4801882B4800F059FC032C03DA0021AF
:100E6000284800F07DFB00BF40F20151254800F00A
:100E70003EFC0028F8D040F20151224800F023FC4B
:100E8000012C02D11F4800F05EFC27E0032C0BD19F
:100E900000BF40F202511B4800F029FC0028F8D0A6
:100EA0000021184800F05CFB022C0AD100BF40F280
:100EB0000251144800F01BFC0028F8D0114800F043
:100EC00042FC40F206510F4800F011FC30B10D48D1
:100ED00000F0E6FB28706D1C601E84B2002CD5D19A
:100EE00000BF0848006800F400700028F9D14FF4F2
:100EF0008061044800F034FB0021024800F038FB18
:100F000070BD000000540040080000202DE9F047AB
:100F100007460D4614464FF00009C846C246002653
:100F20002846E91705EB5171C910A5EBC10101F085
:100F3000FF0ACAF10800C6B22046E11704EB51715E
:100F4000C1F3C709E11704EB5171C910A4EBC1014A
:100F500001F0FF08BAF1000F1DD10AE0082229466E
:100F6000384600F05DF800F0BDF805F10800C5B2A4
:100F70000837B9F10000A9F1010101F0FF09EDD135
:100F8000B8F1000F49D042462946384600F048F8EB
:100F900000F0A8F841E0B44207DAE2B22946384648
:100FA00000F03EF800F09EF837E0A01B84B2204627
:100FB000E11704EB5171C1F3C709E11704EB51715B
:100FC000C910A4EBC10101F0FF084EB13246294619
:100FD000384600F025F800F085F8A819C5B2374466
:100FE0000AE008222946384600F01AF800F07AF89C
:100FF00005F10800C5B20837B9F10000A9F10101F7
:1010000001F0FF09EDD1B8F1000F06D042462946A4
:10101000384600F005F800F065F8BDE8F0870000FC
:1010200070B504460E46154600BF40F201612B48DC
:1010300000F05DFB0028F8D1284800F07FFB00BFDE
:101040004FF4A061254800F052FB0028F8D06FF063
:10105000010223480188214800F058FB00BF40F2FC
:1010600001511E4800F043FB0028F8D040F2015126
:101070001A4800F028FB00BF40F20751174800F063
:1010800036FB0128F8D13146144800F00DFB00BFB3
:1010900040F20251114800F02AFB0028F8D00CE081
:1010A00021780E4800F000FB641C00BF40F20251A2
:1010B0000A4800F01CFB0028F8D0281EA5F1010109
:1010C000CDB2EDD1054800F03EFB00BF03480068FB
:1010D00000F400700028F9D170BD000000540040F9
:1010E0000800002008B50020009040E000BF40F25A
:1010F00001611F4800F0FBFA0028F8D11C4800F0FD
:101100001DFB00BF4FF4A061194800F0F0FA002861
:10111000F8D06FF0010217480188154800F0F6FA80
:1011200000BF134814300068009040F2024100985C
:1011300008400028F5D0009800F0020040B140F2CD
:1011400001510B4800F0BFFA094800F0FCFA08BD55
:1011500040F20A51064800F0B6FA054800F0F3FAEA
:1011600000BF0348006800F400700028F9D1BDE713
:10117000005400400800002070B504460D46E1B25E
:10118000054800F037FE00BF0721034800F0A9FE24
:101190000028F9D0204670BD0010014070B505460A
:1011A00000242748854200D100BF4FF4406000F082
:1011B000C7FC244931F8140000F0C2FC224850F862
:1011C00024200721214800F087F8214850F82420E6
:1011D00007211E4800F080F81B4850F824300122F7
:1011E00002211A4800F0DAF8174850F82430022299
:1011F0000021164800F0F9F8154850F82430012273
:101200000221124800F0CAF8114850F82430022296
:1012100000210E4800F0E9F8284600F0EFFD4FF4F9
:10122000E131284600F072FD0421284600F068FEF6
:101230000821284600F06CFE284600F04DFE70BDE7
:1012400000100140280000202C0000200000024077
:101250003000002010B50446104931F8140000F0A9
:101260006FFC0F4951F824300E4951F82400002238
:10127000012100F093F80A4951F82430094951F846
:1012800024000222002100F0B0F8054850F82400A4
:10129000044951F82410886210BD00003400002079
:1012A0001C00002010000020034951F82010034AC0
:1012B00052F82020916270471C000020100000208E
:1012C000034951F82010034A52F8202091617047D9
:1012D0001C00002010000020F0B503461C6A5D6A67
:1012E00000200DE00126864016403EB187000F2603
:1012F000BE40B443860001FA06F63443461CB0B241
:101300000828EFD3082011E00126864016405EB180
:10131000A0F10806B7000F26BE40B543A0F10806AD
:10132000B60001FA06F63543461CB0B21028EBD3DE
:101330001C625D62F0BD8162704781617047000090
:1013400010B540F6014000F0FBFB41F2150000F043
:10135000F7FB402204211048FFF7BEFF8022042142
:101360000D48FFF7B9FF4023012202210A4800F08F
:1013700015F8402302220121074800F036F88023A7
:1013800001220221044800F009F8802302220121F1
:10139000014800F02AF810BD00040240F0B50446F0
:1013A0000D4616462168E268002019E001278740B3
:1013B0001F409FB14FEA400C032707FA0CF7B943CF
:1013C000470005FA07F739434FEA400C032707FAAD
:1013D0000CF7BA43470006FA07F73A43471CB8B27E
:1013E0001028E3D32160E260F0BDF0B50C4615464D
:1013F000012C03D146681E43466002E046689E43C6
:101400004660826800210DE001268E401E403EB1FC
:101410004F000326BE40B2434E0005FA06F63243A3
:101420004E1CB1B21029EFD38260F0BD10B5ADF5FE
:10143000007D2BA0FFF756FA002413E040A90C55BD
:1014400040A8015D2CA0FFF74DFAE11704EB1171E4
:101450000911A4EB01110F2902D126A0FFF742FACE
:10146000601C84B2FF2CE9DD4FF48072002140A89B
:10147000FFF74CFD22A0FFF735FA4FF480720021F0
:101480006846FFF791FC002423E01DF8040040A902
:10149000095D88420BD01DF8041017A0FFF722FA4F
:1014A0001DA0FFF71FFA01200DF5007D10BD1DF8EE
:1014B000041011A0FFF716FAE11704EB11710911DE
:1014C000A4EB01110F2902D10AA0FFF70BFA601C4F
:1014D00084B2FF2CD9DD1BA0FFF704FA0020E3E75C
:1014E0000D0A415432344330322077726974696E88
:1014F000672E2E2E0D0A000030782530325820003D
:10150000415432344330322072656164696E672E13
:101510002E2E0D0A000000004572723A646174615B
:10152000207265616420616E642077726974652041
:101530006172656E2774206D61746368696E672ED1
:101540000A0D00004932432D4154323443303220D9
:101550007465737420706173736564210A0D0000F3
:101560000A460021016821F480611143016070473F
:101570000A460021016821F40061114301607047AF
:101580002DE9F05F04460E469346022000F046FA2D
:1015900007463148B7FBF0F9B9F13C0F01D34FF0E2
:1015A0003C09D4F804A02AF03F0A4AEA090AC4F820
:1015B00004A02A4886421ED82748B7FBF0F000F165
:1015C0000108B8F13C0F02D33C20206207E0B8F1DB
:1015D000020F02D80220206201E0C4F820807000CF
:1015E000B7FBF0F5042D00D20425E069C5F30B012B
:1015F0000843E0612EE01A4886422BD84FF49670DB
:1016000009FB00F04FF47A71B0FBF1F0401C20624E
:10161000BBF1000F08D106EB4600B7FBF0F5E0691F
:1016200020F48040E06109E006EBC60000EB061004
:10163000B7FBF0F5E06940F48040E061C5F30B00D2
:1016400008B945F00105E06940F40040E061E06957
:101650002843E061BDE8F09F40420F00A0860100F2
:10166000801A060010B541F2150000F069FA002258
:1016700009490A48FFF784FFA023002211460748C2
:1016800000F04EF8054800F019F84FF48061034867
:10169000FFF766FF10BD0000801A060000540040EE
:1016A00001460869C0B27047CAB2026170470000C3
:1016B000A02001490880704708000020016841F01F
:1016C00001010160704710B540F20152914202D110
:1016D000426982690AE000EB9112126801F01F046E
:1016E0000123A3409A4300EB91131A6010BD10B57B
:1016F000024602EB9110006801F01F040123A34091
:10170000184008B1012010BD0020FCE712F1020FC3
:1017100002D121F0010101E041F0010101617047B6
:1017200030B50C460021016821F00201214301601F
:10173000C3F3090342EA0305856030BD016841F443
:10174000807101607047016841F400710160704769
:1017500010B50020FFF77EFD0120FFF77BFD022082
:10176000FFF778FD0020FFF79FFD0120FFF79CFDAC
:101770000220FFF799FD10BD10B5044624B1012CDD
:1017800006D0022C0CD107E00020FFF799FD11E0F4
:101790000120FFF795FD0DE00220FFF791FD09E024
:1017A0000020FFF78DFD0120FFF78AFD0220FFF7E3
:1017B00087FD00BF00BF10BD00F080FAFFF7C8FF33
:1017C0002348FFF7EBFC23A0FFF78CF8FFF7B8FDE9
:1017D000FFF748FFFFF76CFF00F06AF824A0FFF75F
:1017E00081F82C492CA0FFF77DF8FFF71FFE20BBE6
:1017F00022E00020FFF758FD0120FFF755FD0220F1
:10180000FFF752FD29480078032190FBF1F201FB1C
:101810001200C4B22046FFF7AFFF24480078401CF6
:101820002249087008460078032801DB0020087070
:101830004FF4FA70FFF7A2FADBE70020FFF740FD54
:101840000120FFF73DFD0220FFF73AFD00BFFEE754
:10185000001001404932432D323443303220636F4F
:101860006E666967757265642E2E2E2E0A0D000055
:101870000D0A5468652049324320697320686172FB
:10188000647761726520696E746572666163652054
:1018900000000000801A06000D0A5468652073706D
:1018A0006565642069732025640000000000002045
:1018B00008B5FEF7D9FDFEF77DFD20240022114674
:1018C0001046FEF76BFE012200211220FEF766FE95
:1018D000022200212420FEF761FE0322002136208F
:1018E000FEF75CFE042200214820FEF757FE052289
:1018F00000215A20FEF752FE062200216C20FEF73E
:101900004DFE7BE0FEF756FD002211461046FEF725
:1019100045FE012200211220FEF740FE0222002196
:101920002420FEF73BFE032200213620FEF736FE80
:10193000042200214820FEF731FE052200215A2012
:10194000FEF72CFE062200216C20FEF727FE102356
:10195000224606213020FEF755FE601CC4B27E2CC4
:1019600000DD20241020032322460621009067205A
:10197000FEF79AFE4FF4FA50FFF700FA4FF4FA50D0
:10198000FFF7FCF94FF4FA50FFF7F8F94FF4FA506B
:10199000FFF7F4F94FF4FA50FFF7F0F9184808236D
:1019A0008022002100900846FEF723FD4FF4FA50F4
:1019B000FFF7E4F94FF4FA50FFF7E0F94FF4FA506B
:1019C000FFF7DCF94FF4FA50FFF7D8F90C48082379
:1019D0008022002100900846FEF70BFD4FF4FA50DC
:1019E000FFF7CCF94FF4FA50FFF7C8F94FF4FA506B
:1019F000FFF7C4F94FF4FA50FFF7C0F982E700008F
:101A0000F103002010B50246012000E050430B1EF8
:101A1000A1F10104E1B2F9D110BD00002DE9F04FB0
:101A20008CB0064600200A903EA090E8004CC068AA
:101A3000CDE905BECDF810A007900FF2EC0ADAE967
:101A4000000ACDE9020A0FF2E00ADAE9000ACDE95C
:101A5000000A38480068C0F381000B900B9820B151
:101A6000012804D0022828D103E0334927E0334974
:101A700025E03048001F006800F03F072D48001F98
:101A80000068C0F3881C2B48001F0068C0F30140A9
:101A9000401C4FEA40092748001F006800F48008F6
:101AA000B8F5800F01D1254B00E0234BB3FBF7F0D5
:101AB00000FB0CF0B0FBF9F101E01F4900BF00BFD3
:101AC0001C480068C0F3031404A8055D21FA05F260
:101AD00018480068C0F3822402A8055D22FA05F0C8
:101AE000099014480068C0F342341DF8045022FAEB
:101AF00005F0089036B1012E06D0022E06D0032E36
:101B00000AD106E00A9108E00A9206E009980A90D4
:101B100003E008980A9000E000BF00BF0A980CB0EC
:101B2000BDE8F08F00000000000000000102030487
:101B300006070809083802400024F40040787D01B7
:101B4000074A02EB9011D1F8001800F01F030122A0
:101B50009A401143024B03EB9012C2F800187047F1
:101B600000300240074A02EB9011D1F8001800F053
:101B70001F0301229A409143024B03EB9012C2F8DB
:101B80000018704700300240074A02EB9011D1F86C
:101B9000001800F01F0301229A401143024B03EB8F
:101BA0009012C2F800187047003002400020002157
:101BB0003D4A126842F480323B4B1A6000BF401C21
:101BC000394A126802F4003119B94FF6FF72904297
:101BD000F5D1354A126802F4003232B900BF324AF8
:101BE000126802F40032002AF9D02F4A40321268FB
:101BF00042F080522C4B40331A602C4A126842F457
:101C000040422A4B1A60284A08321268264B083391
:101C10001A601A46126842F400421A601A461268A4
:101C200042F4A0521A60224A1B1F1A601A1F12683F
:101C300042F080721B1F1A6000BF1B4A126802F03C
:101C40000072002AF9D0194A126842F48032174B08
:101C50001A6000BF154A526802F48032002AF9D097
:101C6000124A126842F40032104B1A6000BF0F4A49
:101C7000526802F40032002AF9D00B4A0832126886
:101C800022F00302084B08331A601A46126842F029
:101C900002021A6000BF044A0832126802F0080209
:101CA000002AF8D070470000003802400070004061
:101CB0001978400A10B5FFF779FF10BD10B512482A
:101CC00000684FF47A71B0FBF1F4601EB0F1807FD0
:101CD00001D301200FE0601E4FF0E02148610F2189
:101CE0004FF0FF30FEF752FB00204FF0E0218861FB
:101CF00007200861002008B100BFFEE70021481E50
:101D0000FEF744FB10BD00000C0000202DE9F04759
:101D100004460D460027B846B94600263349601AE6
:101D20008C4235D00CDC32482044E8B1B0F5806FED
:101D30001FD0B0F5006F21D0B0F5406F32D122E056
:101D4000B0F5806F29D0B0F5184F03D0B0F51C4F17
:101D500028D104E00320FFF761FE074623E00320BB
:101D6000FFF75CFE07461EE00220FFF757FE07461E
:101D700019E00220FFF752FE074614E00220FFF7A9
:101D80004DFE07460FE00220FFF748FE07460AE037
:101D90000220FFF743FE074605E00220FFF73EFE64
:101DA000074600E000BF00BFE06800F4004070B1EB
:101DB000780000EB5500B0FBF5F64FF6F07006EA40
:101DC0000008C6F3420948EA0900A0600CE007EBEE
:101DD0005500B0FBF5F64FF6F07006EA000806F085
:101DE0000F0948EA0900A060BDE8F08700780040CC
:101DF00000BCFFBFC1F308024260704710B5044643
:101E00003349601A8C424DD00CDC32482044E0B19A
:101E1000B0F5806F22D0B0F5006F31D0B0F5406FD3
:101E200052D136E0B0F5806F45D0B0F5184F03D0F1
:101E3000B0F51C4F48D11AE040F60410FFF7A4FE9D
:101E400040F60410FFF78EFE3FE040F61100FFF76A
:101E50009BFE40F61100FFF785FE36E040F61200CB
:101E6000FFF792FE40F61200FFF77CFE2DE040F6F1
:101E70000510FFF789FE40F60510FFF773FE24E01A
:101E800040F61300FFF780FE40F61300FFF76AFEEE
:101E90001BE040F61400FFF777FE40F61400FFF752
:101EA00061FE12E040F61E00FFF76EFE40F61E00D7
:101EB000FFF758FE09E040F61F00FFF765FE40F609
:101EC0001F00FFF74FFE00E000BF00BF10BD000085
:101ED0000078004000BCFFBFC16841F40051C16000
:101EE000704710B5024602EB9110006801F01F0424
:101EF0000123A340184008B1012010BD0020FCE7D9
:101F00000A460021C16821F004011143C1607047F5
:101F10000A460021C16821F008011143C1607047E1
:101F20000000000000000000002F0000000007007B
:101F3000070000147F147F1400242A7F2A120062F5
:101F400064081323003649552250000005030000A1
:101F500000001C224100000041221C000014083E29
:101F600008140008083E0808000000A060000008EF
:101F70000808080800006060000000201008040243
:101F8000003E5149453E0000427F40000042615101
:101F90004946002141454B31001814127F1000279B
:101FA00045454539003C4A4949300001710905035E
:101FB00000364949493600064949291E000036368F
:101FC00000000000563600000008142241000014F2
:101FD00014141414000041221408000201510906CF
:101FE00000324959513E007C1211127C007F494950
:101FF0004936003E41414122007F4141221C007F81
:1020000049494941007F09090901003E4149497A8E
:10201000007F0808087F0000417F41000020404108
:102020003F01007F08142241007F40404040007F74
:10203000020C027F007F0408107F003E4141413EB8
:10204000007F09090906003E4151215E007F091900
:1020500029460046494949310001017F0101003FFD
:102060004040403F001F2040201F003F4038403F7D
:1020700000631408146300070870080700615149E1
:10208000454300007F41410000552A552A55000074
:1020900041417F00000402010204004040404040F2
:1020A000000001020400002054545478007F48448A
:1020B000443800384444442000384444487F0038C1
:1020C0005454541800087E0901020018A4A4A47CEA
:1020D000007F080404780000447D400000408084B4
:1020E0007D00007F102844000000417F4000007CFC
:1020F00004180478007C0804047800384444443808
:1021000000FC242424180018242418FC007C080453
:10211000040800485454542000043F444020003C2C
:102120004040207C001C2040201C003C4030403CB3
:10213000004428102844001CA0A0A07C0044645443
:102140004C44141414141414000000000000000087
:102150000000000000000000000000F80000000087
:10216000000000333000000000100C06100C0600C8
:10217000000000000000000040C07840C07840002F
:10218000043F04043F040400007088FC0830000091
:10219000001820FF211E0000F008F000E0180000E9
:1021A00000211C031E211E0000F0088870000000A2
:1021B0001E2123241927211010160E0000000000F4
:1021C0000000000000000000000000E01804020011
:1021D000000000071820400000020418E000000082
:1021E0000040201807000000404080F08040400080
:1021F0000202010F01020200000000F000000000D6
:102200000101011F010101000000000000000000A9
:1022100080B070000000000000000000000000001E
:1022200000010101010101010000000000000000A7
:102230000030300000000000000000008060180442
:10224000006018060100000000E010080810E0001F
:10225000000F102020100F00001010F800000000E8
:102260000020203F2020000000700808088870002F
:1022700000302824222130000030088888483000AF
:102280000018202020110E000000C02010F80000CF
:1022900000070424243F240000F808888808080068
:1022A0000019212020110E0000E01088881800007D
:1022B000000F112020110E0000380808C83808004F
:1022C0000000003F000000000070880808887000CF
:1022D000001C222121221C0000E010080810E00050
:1022E0000000312222110F00000000C0C0000000D9
:1022F00000000030300000000000008000000000FE
:1023000000008060000000000000804020100800F5
:1023100000010204081020004040404040404000BE
:102320000404040404040400000810204080000099
:102330000020100804020100007048080808F0009E
:102340000000003036010000C030C828E810E0006E
:102350000718272423140B000000C038E0000000F9
:10236000203C23020227382008F888888870000063
:10237000203F202020110E00C03008080808380037
:10238000071820202010080008F808080810E000AE
:10239000203F202020100F0008F88888E80810004F
:1023A000203F20202320180008F88888E808100023
:1023B000203F200003000000C0300808083800005B
:1023C00007182020221E020008F808000008F8085C
:1023D000203F210101213F20000808F808080000E3
:1023E0000020203F2020000000000808F808080016
:1023F000C08080807F00000008F888C0281808008E
:10240000203F20012638200008F8080000000000C6
:10241000203F20202020300008F8F800F8F80800BD
:10242000203F003F003F200008F830C00008F808B7
:10243000203F200007183F00E01008080810E000C7
:102440000F10202020100F0008F808080808F000DE
:10245000203F210101010000E01008080810E00001
:102460000F18242438504F0008F888888888700096
:10247000203F2000030C3020007088080808380036
:102480000038202121221C00180808F8080818002C
:102490000000203F2000000008F808000008F808AD
:1024A000001F202020201F000878880000C838085E
:1024B000000007380E010000F80800F80008F800D6
:1024C000033C0700073C0300081868808068180870
:1024D00020302C03032C30200838C800C8380800EE
:1024E0000000203F2000000010080808C83808003D
:1024F0002038262120201800000000FE02020200E1
:102500000000007F40404000000C30C00000000090
:10251000000000010638C00000020202FE000000B8
:10252000004040407F00000000000402020204005E
:10253000000000000000000000000000000000009B
:102540008080808080808080000202040000000083
:10255000000000000000000000008080808000007B
:102560000019242222223F2008F800808000000069
:10257000003F112020110E0000000080808000002C
:10258000000E112020201100000000808088F8003B
:10259000000E112020103F2000008080808000006D
:1025A000001F222222221300008080F088888818D1
:1025B0000020203F202000000000808080808000DC
:1025C000006B94949493600008F800808080000071
:1025D000203F210000203F2000809898000000004C
:1025E0000020203F2020000000000080989800007C
:1025F00000C08080807F000008F80000808080009C
:10260000203F24022D302000000808F800000000C0
:102610000020203F2020000080808080808080007B
:10262000203F20003F20003F80800080808000000D
:10263000203F210000203F2000008080808000009B
:10264000001F202020201F008080008080000000CC
:1026500080FFA12020110E000000008080808000FB
:10266000000E112020A0FF808080800080808000EC
:1026700020203F2120000100000080808080800019
:102680000033242424241900008080E0808000008E
:102690000000001F202000008080000000808000DB
:1026A000001F202020103F2080808000008080803C
:1026B00000010E30080601008080008000808080CC
:1026C0000F300C030C300F000080800080808000F1
:1026D0000020312E0E31200080808000008080801C
:1026E00080818E70180601000080808080808000CC
:1026F0000021302C2221300000000000807C0202EA
:1027000000000000003F404000000000FF0000000B
:1027100000000000FF0000000002027C80000000BA
:102720000040403F000000000006010102020404D6
:1027300000000000000000005827000800000020F2
:10274000F8070000AE020008E4290008F80700209E
:102750000004000014090008D1141C4E0E3C0C02A9
:1027600040043518024010322032083304112A0286
:10277000092147030C030C060C19281A0804450408
:10278000024001292D32401D0C020C0120B9141306
:102790000201260D0E0628281BF010012AFF050253
:1027A00015F01B0F04012AFF0502130F1809404002
:1027B000405F55555575041A5F0C091121080C111D
:1027C000200F094989790909090F201F112FFE02DD
:1027D000424ACA4A0304134202FE000E14FF40504C
:1027E0004C4340404F50505C40FF1BF888012AFF8B
:1027F000050215F81B1F08012A7F200B109F80E29D
:102800003B808201000916E2A2928A8682808004BF
:102810001840807F172424A4FEA3221B22CCAA01E7
:102820001415080601FF2B0104010511FF02020225
:102830005808101010FF109008C3021108080F105C
:102840000444827F01808040432C10284681A018D8
:10285000094040484848C8784F0605154848404058
:102860000009150312122222528A063C106080BA17
:1028700019040B11C030FB1E404043407F061C7FF3
:10288000424106094FC02941080B1110D030FF30DA
:10289000D0121C10101F3D080402019E0D110102F0
:1028A0000408211116FE222222FE0712FE828292C5
:1028B000A29E100880601F0242827F0F11FF402FEE
:1028C000102C438011000B1490884C57A4245454AE
:1028D0008C84180801018042221A07441D423E01DF
:1028E000018AF9E1000D14E4242CB4252624B42C2B
:1028F00024E404180AFF02011E1212121E4186016E
:102900001316060AFE0AC612E012F05AF8D04D7DE0
:10291000BBC7EF01053EC7BB7DFE300D080CFEFEB8
:102920000C082060FEFE60208F7848FE82BABA0351
:1029300009135E19E78901017E6CFEFF0301CBFFDD
:10294000FF0F39BBECC0C0C0271918F9270139297E
:1029500075990B6CFFFF0C01491A0C22E1E1E1278C
:1029600001396C0F1F1801FB1F0F0F092E270136AD
:10297000168C4222120C26FC020202FC3304FE16C4
:10298000205844FE402A10015912491E4912A92A12
:102990000123300A24A42E24E4242EA424C00AF8FF
:1029A0004A4C48F8484C4AF82A01013907490D5960
:1029B00015991F9918091412712BC020A1AB20C0C2
:1029C0000A11300A120A07027F02070A121E0B0AB6
:1029D0000A0A7F0402560B980A1F204040405020EC
:0429E0005F800A7199
:04000005080001AD41
:00000001FF
